:03000000020929C9
:0C092900787FE4F6D8FD75811902097092
:1009B500454E5445522050494E204E554D424552C4
:1009C5000050494E20434F525245435400444F4F27
:1009D50052204F50454E454400444F4F52204953F5
:1009E50020434C4F53494E4700444F4F5220434CF0
:0F09F5004F5345440057524F4E472050494E0034
:080AFC00060D313233343500E0
:0F0A04007F0F120AE07F38120AE07F01120AE02A
:100A1300E4F513F5147F80120AE07BFF7A0979B5B8
:100A2300120A52120AB57FC0120AE0740D2514F897
:100A3300E6601712080074082514F8A607120AB511
:0D0A43000514E51470E5051380E112089913
:020A500080C163
:090AB0007F2A120AEE7FE87E03A2
:100AB900E4FDFCC3ED9FEC9E5015E4FBFA0BBB0073
:0F0AC900010AEB640A4A70F50DBD00010C80E4D0
:010AD80022FB
:070AD9007F01120AE07F819A
:0E0AE0008F90C2B5C2B6D2B7120AB5C2B72205
:0E0AEE008F90D2B5C2B6D2B7120AB5C2B722E7
:060A52008B158A168917BE
:100A5800E4F518F519AB15AA16A917851982851892
:100A680083120A83FF600D120AEE0519E51970E575
:0B0A7800051880E17F107E27020AB9FC
:10080000E4FFFEEF4E6003020898C2A0D2A1D2A27C
:10081000D2A320B006120AB07F312220B106120AFC
:10082000B07F322220B206120AB07F3322D2A0C299
:10083000A1D2A2D2A320B006120AB07F342220B1E6
:1008400006120AB07F352220B206120AB07F362285
:10085000D2A0D2A1C2A2D2A320B006120AB07F3782
:100860002220B106120AB07F382220B206120AB046
:100870007F3922D2A0D2A1D2A2C2A320B006120AEE
:10088000B07F2A2220B106120AB07F302230B20394
:08089000020803120AB07F23E5
:01089800223D
:10089900E50D6508706EE50E65097068E50F650A76
:1008A9007062E510650B705CE511650C7056120AF3
:1008B900B5120AD97BFF7A0979C6120A52120AB50A
:1008C900D2B3C2B47FC1120AE07BFF7A0979D2128E
:1008D9000A527FA07E86120AB9120AD97BFF7A09C9
:1008E90079DE120A52C2B3D2B47FC1120AE07FA0E4
:1008F9007E86120AB9C2B3C2B47BFF7A0979EE12B5
:100909000A5280167F01120AE07F80120AE07BFFFB
:100919007A0979FA120A52120AB57F01120AE022FB
:10093500020A04E493A3F8E493A34003F68001F2CA
:1009450008DFF48029E493A3F85407240CC8C333C3
:10095500C4540F4420C8834004F456800146F6DF92
:10096500E4800B0102040810204080900AFCE47E1C
:10097500019360BCA3FF543F30E509541FFEE49387
:10098500A360010ECF54C025E060A840B8E493A34E
:10099500FAE493A3F8E493A3C8C582C8CAC583CA79
:1009A500F0A3C8C582C8CAC583CADFE9DEE780BE31
:010B040000F0
:100A8300BB010CE58229F582E5833AF583E0225028
:100A930006E92582F8E622BBFE06E92582F8E22272
:0D0AA300E58229F582E5833AF583E493228C
:00000001FF
